{
  "_format": "hh-sol-artifact-1",
  "contractName": "Web3RSVP",
  "sourceName": "contracts/Web3RSVP.sol",
  "abi": [
    {
      "anonymous": false,
      "inputs": [
        {
          "indexed": false,
          "internalType": "bytes32",
          "name": "eventID",
          "type": "bytes32"
        },
        {
          "indexed": false,
          "internalType": "address",
          "name": "attendeeAddress",
          "type": "address"
        }
      ],
      "name": "ConfirmedAttendee",
      "type": "event"
    },
    {
      "anonymous": false,
      "inputs": [
        {
          "indexed": false,
          "internalType": "bytes32",
          "name": "eventID",
          "type": "bytes32"
        }
      ],
      "name": "DepositsPaidOut",
      "type": "event"
    },
    {
      "anonymous": false,
      "inputs": [
        {
          "indexed": false,
          "internalType": "bytes32",
          "name": "eventID",
          "type": "bytes32"
        },
        {
          "indexed": false,
          "internalType": "address",
          "name": "creatorAddress",
          "type": "address"
        },
        {
          "indexed": false,
          "internalType": "uint256",
          "name": "eventTimestamp",
          "type": "uint256"
        },
        {
          "indexed": false,
          "internalType": "uint256",
          "name": "maxCapacity",
          "type": "uint256"
        },
        {
          "indexed": false,
          "internalType": "uint256",
          "name": "deposit",
          "type": "uint256"
        },
        {
          "indexed": false,
          "internalType": "string",
          "name": "eventDataCID",
          "type": "string"
        }
      ],
      "name": "NewEventCreated",
      "type": "event"
    },
    {
      "anonymous": false,
      "inputs": [
        {
          "indexed": false,
          "internalType": "bytes32",
          "name": "eventID",
          "type": "bytes32"
        },
        {
          "indexed": false,
          "internalType": "address",
          "name": "attendeeAddress",
          "type": "address"
        }
      ],
      "name": "NewRSVP",
      "type": "event"
    },
    {
      "inputs": [
        {
          "internalType": "bytes32",
          "name": "eventId",
          "type": "bytes32"
        }
      ],
      "name": "confirmAllAttendees",
      "outputs": [],
      "stateMutability": "nonpayable",
      "type": "function"
    },
    {
      "inputs": [
        {
          "internalType": "bytes32",
          "name": "eventId",
          "type": "bytes32"
        },
        {
          "internalType": "address",
          "name": "attendee",
          "type": "address"
        }
      ],
      "name": "confirmAttendee",
      "outputs": [],
      "stateMutability": "nonpayable",
      "type": "function"
    },
    {
      "inputs": [
        {
          "internalType": "uint256",
          "name": "eventTimestamp",
          "type": "uint256"
        },
        {
          "internalType": "uint256",
          "name": "deposit",
          "type": "uint256"
        },
        {
          "internalType": "uint256",
          "name": "maxCapacity",
          "type": "uint256"
        },
        {
          "internalType": "string",
          "name": "eventDataCID",
          "type": "string"
        }
      ],
      "name": "createNewEvent",
      "outputs": [],
      "stateMutability": "nonpayable",
      "type": "function"
    },
    {
      "inputs": [
        {
          "internalType": "bytes32",
          "name": "eventId",
          "type": "bytes32"
        }
      ],
      "name": "createNewRSVP",
      "outputs": [],
      "stateMutability": "payable",
      "type": "function"
    },
    {
      "inputs": [
        {
          "internalType": "bytes32",
          "name": "",
          "type": "bytes32"
        }
      ],
      "name": "idToEvent",
      "outputs": [
        {
          "internalType": "bytes32",
          "name": "eventId",
          "type": "bytes32"
        },
        {
          "internalType": "string",
          "name": "eventDataCID",
          "type": "string"
        },
        {
          "internalType": "address",
          "name": "eventOwner",
          "type": "address"
        },
        {
          "internalType": "uint256",
          "name": "eventTimestamp",
          "type": "uint256"
        },
        {
          "internalType": "uint256",
          "name": "deposit",
          "type": "uint256"
        },
        {
          "internalType": "uint256",
          "name": "maxCapacity",
          "type": "uint256"
        },
        {
          "internalType": "bool",
          "name": "paidOut",
          "type": "bool"
        }
      ],
      "stateMutability": "view",
      "type": "function"
    },
    {
      "inputs": [
        {
          "internalType": "bytes32",
          "name": "eventId",
          "type": "bytes32"
        }
      ],
      "name": "withdrawUnclaimedDeposits",
      "outputs": [],
      "stateMutability": "nonpayable",
      "type": "function"
    }
  ],
  "bytecode": "0x608060405234801561001057600080fd5b5061225b806100206000396000f3fe6080604052600436106100545760003560e01c806292098c1461005957806317f0165a146100825780636dcdf2cd1461009e57806379747571146100c7578063909ef021146100f0578063acdbe01214610133575b600080fd5b34801561006557600080fd5b50610080600480360381019061007b91906115c8565b61015c565b005b61009c60048036038101906100979190611686565b6103d0565b005b3480156100aa57600080fd5b506100c560048036038101906100c09190611711565b61063d565b005b3480156100d357600080fd5b506100ee60048036038101906100e99190611686565b610b16565b005b3480156100fc57600080fd5b5061011760048036038101906101129190611686565b610fce565b60405161012a9796959493929190611832565b60405180910390f35b34801561013f57600080fd5b5061015a60048036038101906101559190611686565b6110c5565b005b60003330878787604051602001610177959493929190611911565b604051602081830303815290604052805190602001209050600080600083815260200190815260200160002060030154146101e7576040517f08c379a00000000000000000000000000000000000000000000000000000000081526004016101de906119bc565b60405180910390fd5b60608060405180610120016040528084815260200186868080601f016020809104026020016040519081016040528093929190818152602001838380828437600081840152601f19601f8201169050808301925050505050505081526020013373ffffffffffffffffffffffffffffffffffffffff168152602001898152602001888152602001878152602001838152602001828152602001600015158152506000808581526020019081526020016000206000820151816000015560208201518160010190805190602001906102bf9291906113f6565b5060408201518160020160006101000a81548173ffffffffffffffffffffffffffffffffffffffff021916908373ffffffffffffffffffffffffffffffffffffffff160217905550606082015181600301556080820151816004015560a0820151816005015560c082015181600601908051906020019061034192919061147c565b5060e082015181600701908051906020019061035e92919061147c565b506101008201518160080160006101000a81548160ff0219169083151502179055509050507f2553138c3f9c9008f266dbdbe9fc64f5b71e098d06ef714a190a65a8b9fc6bf383338a898b8a8a6040516103be9796959493929190611a18565b60405180910390a15050505050505050565b600080600083815260200190815260200160002090508060040154341461042c576040517f08c379a000000000000000000000000000000000000000000000000000000000815260040161042390611ace565b60405180910390fd5b8060030154421115610473576040517f08c379a000000000000000000000000000000000000000000000000000000000815260040161046a90611b3a565b60405180910390fd5b80600501548160060180549050106104c0576040517f08c379a00000000000000000000000000000000000000000000000000000000081526004016104b790611ba6565b60405180910390fd5b60005b81600601805490508160ff16101561059a573373ffffffffffffffffffffffffffffffffffffffff16826006018260ff168154811061050557610504611bc6565b5b9060005260206000200160009054906101000a900473ffffffffffffffffffffffffffffffffffffffff1673ffffffffffffffffffffffffffffffffffffffff161415610587576040517f08c379a000000000000000000000000000000000000000000000000000000000815260040161057e90611c41565b60405180910390fd5b808061059290611c9d565b9150506104c3565b5080600601339080600181540180825580915050600190039060005260206000200160009091909190916101000a81548173ffffffffffffffffffffffffffffffffffffffff021916908373ffffffffffffffffffffffffffffffffffffffff1602179055507fb79f4240bbdd272d98e02a5db7f0cf156e5fc000961c517670a26eeeec63ed908233604051610631929190611cc7565b60405180910390a15050565b600080600084815260200190815260200160002090508060020160009054906101000a900473ffffffffffffffffffffffffffffffffffffffff1673ffffffffffffffffffffffffffffffffffffffff163373ffffffffffffffffffffffffffffffffffffffff16146106e5576040517f08c379a00000000000000000000000000000000000000000000000000000000081526004016106dc90611d3c565b60405180910390fd5b600080600090505b82600601805490508160ff1610156107d0578373ffffffffffffffffffffffffffffffffffffffff16836006018260ff168154811061072f5761072e611bc6565b5b9060005260206000200160009054906101000a900473ffffffffffffffffffffffffffffffffffffffff1673ffffffffffffffffffffffffffffffffffffffff1614156107bd57826006018160ff168154811061078f5761078e611bc6565b5b9060005260206000200160009054906101000a900473ffffffffffffffffffffffffffffffffffffffff1691505b80806107c890611c9d565b9150506106ed565b508273ffffffffffffffffffffffffffffffffffffffff168173ffffffffffffffffffffffffffffffffffffffff161461083f576040517f08c379a000000000000000000000000000000000000000000000000000000000815260040161083690611da8565b60405180910390fd5b60005b82600701805490508160ff161015610919578373ffffffffffffffffffffffffffffffffffffffff16836007018260ff168154811061088457610883611bc6565b5b9060005260206000200160009054906101000a900473ffffffffffffffffffffffffffffffffffffffff1673ffffffffffffffffffffffffffffffffffffffff161415610906576040517f08c379a00000000000000000000000000000000000000000000000000000000081526004016108fd90611e14565b60405180910390fd5b808061091190611c9d565b915050610842565b50600015158260080160009054906101000a900460ff16151514610972576040517f08c379a000000000000000000000000000000000000000000000000000000000815260040161096990611e80565b60405180910390fd5b81600701839080600181540180825580915050600190039060005260206000200160009091909190916101000a81548173ffffffffffffffffffffffffffffffffffffffff021916908373ffffffffffffffffffffffffffffffffffffffff16021790555060008373ffffffffffffffffffffffffffffffffffffffff168360040154604051610a0190611ed1565b60006040518083038185875af1925050503d8060008114610a3e576040519150601f19603f3d011682016040523d82523d6000602084013e610a43565b606091505b5050905080610a965782600701805480610a6057610a5f611ee6565b5b6001900381819060005260206000200160006101000a81549073ffffffffffffffffffffffffffffffffffffffff021916905590555b80610ad6576040517f08c379a0000000000000000000000000000000000000000000000000000000008152600401610acd90611f61565b60405180910390fd5b7ff8d1583a733d83bdd3ef5464129d0a95a36d62b382d31c6d0467a61f4264381b8585604051610b07929190611cc7565b60405180910390a15050505050565b60008060008381526020019081526020016000206040518061012001604052908160008201548152602001600182018054610b5090611fb0565b80601f0160208091040260200160405190810160405280929190818152602001828054610b7c90611fb0565b8015610bc95780601f10610b9e57610100808354040283529160200191610bc9565b820191906000526020600020905b815481529060010190602001808311610bac57829003601f168201915b505050505081526020016002820160009054906101000a900473ffffffffffffffffffffffffffffffffffffffff1673ffffffffffffffffffffffffffffffffffffffff1673ffffffffffffffffffffffffffffffffffffffff16815260200160038201548152602001600482015481526020016005820154815260200160068201805480602002602001604051908101604052809291908181526020018280548015610ccb57602002820191906000526020600020905b8160009054906101000a900473ffffffffffffffffffffffffffffffffffffffff1673ffffffffffffffffffffffffffffffffffffffff1681526020019060010190808311610c81575b5050505050815260200160078201805480602002602001604051908101604052809291908181526020018280548015610d5957602002820191906000526020600020905b8160009054906101000a900473ffffffffffffffffffffffffffffffffffffffff1673ffffffffffffffffffffffffffffffffffffffff1681526020019060010190808311610d0f575b505050505081526020016008820160009054906101000a900460ff161515151581525050905080610100015115610dc5576040517f08c379a0000000000000000000000000000000000000000000000000000000008152600401610dbc9061202e565b60405180910390fd5b62093a808160600151610dd8919061204e565b421015610e1a576040517f08c379a0000000000000000000000000000000000000000000000000000000008152600401610e11906120f0565b60405180910390fd5b806040015173ffffffffffffffffffffffffffffffffffffffff163373ffffffffffffffffffffffffffffffffffffffff1614610e8c576040517f08c379a0000000000000000000000000000000000000000000000000000000008152600401610e839061215c565b60405180910390fd5b60008160e00151518260c0015151610ea4919061217c565b90506000826080015182610eb891906121b0565b905060018361010001901515908115158152505060003373ffffffffffffffffffffffffffffffffffffffff1682604051610ef290611ed1565b60006040518083038185875af1925050503d8060008114610f2f576040519150601f19603f3d011682016040523d82523d6000602084013e610f34565b606091505b5050905080610f50576000846101000190151590811515815250505b80610f90576040517f08c379a0000000000000000000000000000000000000000000000000000000008152600401610f8790611f61565b60405180910390fd5b7f393073ea1365f611c3d2f240c992960d2b99dc81715555d3fc40fc55ba80af9c85604051610fbf919061220a565b60405180910390a15050505050565b6000602052806000526040600020600091509050806000015490806001018054610ff790611fb0565b80601f016020809104026020016040519081016040528092919081815260200182805461102390611fb0565b80156110705780601f1061104557610100808354040283529160200191611070565b820191906000526020600020905b81548152906001019060200180831161105357829003601f168201915b5050505050908060020160009054906101000a900473ffffffffffffffffffffffffffffffffffffffff16908060030154908060040154908060050154908060080160009054906101000a900460ff16905087565b600080600083815260200190815260200160002060405180610120016040529081600082015481526020016001820180546110ff90611fb0565b80601f016020809104026020016040519081016040528092919081815260200182805461112b90611fb0565b80156111785780601f1061114d57610100808354040283529160200191611178565b820191906000526020600020905b81548152906001019060200180831161115b57829003601f168201915b505050505081526020016002820160009054906101000a900473ffffffffffffffffffffffffffffffffffffffff1673ffffffffffffffffffffffffffffffffffffffff1673ffffffffffffffffffffffffffffffffffffffff1681526020016003820154815260200160048201548152602001600582015481526020016006820180548060200260200160405190810160405280929190818152602001828054801561127a57602002820191906000526020600020905b8160009054906101000a900473ffffffffffffffffffffffffffffffffffffffff1673ffffffffffffffffffffffffffffffffffffffff1681526020019060010190808311611230575b505050505081526020016007820180548060200260200160405190810160405280929190818152602001828054801561130857602002820191906000526020600020905b8160009054906101000a900473ffffffffffffffffffffffffffffffffffffffff1673ffffffffffffffffffffffffffffffffffffffff16815260200190600101908083116112be575b505050505081526020016008820160009054906101000a900460ff1615151515815250509050806040015173ffffffffffffffffffffffffffffffffffffffff163373ffffffffffffffffffffffffffffffffffffffff16146113a0576040517f08c379a000000000000000000000000000000000000000000000000000000000815260040161139790611d3c565b60405180910390fd5b60005b8160c00151518160ff1610156113f1576113de838360c001518360ff16815181106113d1576113d0611bc6565b5b602002602001015161063d565b80806113e990611c9d565b9150506113a3565b505050565b82805461140290611fb0565b90600052602060002090601f016020900481019282611424576000855561146b565b82601f1061143d57805160ff191683800117855561146b565b8280016001018555821561146b579182015b8281111561146a57825182559160200191906001019061144f565b5b5090506114789190611506565b5090565b8280548282559060005260206000209081019282156114f5579160200282015b828111156114f45782518260006101000a81548173ffffffffffffffffffffffffffffffffffffffff021916908373ffffffffffffffffffffffffffffffffffffffff1602179055509160200191906001019061149c565b5b5090506115029190611506565b5090565b5b8082111561151f576000816000905550600101611507565b5090565b600080fd5b600080fd5b6000819050919050565b6115408161152d565b811461154b57600080fd5b50565b60008135905061155d81611537565b92915050565b600080fd5b600080fd5b600080fd5b60008083601f84011261158857611587611563565b5b8235905067ffffffffffffffff8111156115a5576115a4611568565b5b6020830191508360018202830111156115c1576115c061156d565b5b9250929050565b6000806000806000608086880312156115e4576115e3611523565b5b60006115f28882890161154e565b95505060206116038882890161154e565b94505060406116148882890161154e565b935050606086013567ffffffffffffffff81111561163557611634611528565b5b61164188828901611572565b92509250509295509295909350565b6000819050919050565b61166381611650565b811461166e57600080fd5b50565b6000813590506116808161165a565b92915050565b60006020828403121561169c5761169b611523565b5b60006116aa84828501611671565b91505092915050565b600073ffffffffffffffffffffffffffffffffffffffff82169050919050565b60006116de826116b3565b9050919050565b6116ee816116d3565b81146116f957600080fd5b50565b60008135905061170b816116e5565b92915050565b6000806040838503121561172857611727611523565b5b600061173685828601611671565b9250506020611747858286016116fc565b9150509250929050565b61175a81611650565b82525050565b600081519050919050565b600082825260208201905092915050565b60005b8381101561179a57808201518184015260208101905061177f565b838111156117a9576000848401525b50505050565b6000601f19601f8301169050919050565b60006117cb82611760565b6117d5818561176b565b93506117e581856020860161177c565b6117ee816117af565b840191505092915050565b611802816116d3565b82525050565b6118118161152d565b82525050565b60008115159050919050565b61182c81611817565b82525050565b600060e082019050611847600083018a611751565b818103602083015261185981896117c0565b905061186860408301886117f9565b6118756060830187611808565b6118826080830186611808565b61188f60a0830185611808565b61189c60c0830184611823565b98975050505050505050565b60008160601b9050919050565b60006118c0826118a8565b9050919050565b60006118d2826118b5565b9050919050565b6118ea6118e5826116d3565b6118c7565b82525050565b6000819050919050565b61190b6119068261152d565b6118f0565b82525050565b600061191d82886118d9565b60148201915061192d82876118d9565b60148201915061193d82866118fa565b60208201915061194d82856118fa565b60208201915061195d82846118fa565b6020820191508190509695505050505050565b7f414c524541445920524547495354455245440000000000000000000000000000600082015250565b60006119a660128361176b565b91506119b182611970565b602082019050919050565b600060208201905081810360008301526119d581611999565b9050919050565b82818337600083830152505050565b60006119f7838561176b565b9350611a048385846119dc565b611a0d836117af565b840190509392505050565b600060c082019050611a2d600083018a611751565b611a3a60208301896117f9565b611a476040830188611808565b611a546060830187611808565b611a616080830186611808565b81810360a0830152611a748184866119eb565b905098975050505050505050565b7f4e6f7420456e6f75676800000000000000000000000000000000000000000000600082015250565b6000611ab8600a8361176b565b9150611ac382611a82565b602082019050919050565b60006020820190508181036000830152611ae781611aab565b9050919050565b7f416c72656164792048617070656e656400000000000000000000000000000000600082015250565b6000611b2460108361176b565b9150611b2f82611aee565b602082019050919050565b60006020820190508181036000830152611b5381611b17565b9050919050565b7f54686973206576656e7420686173207265616368656420636170616369747900600082015250565b6000611b90601f8361176b565b9150611b9b82611b5a565b602082019050919050565b60006020820190508181036000830152611bbf81611b83565b9050919050565b7f4e487b7100000000000000000000000000000000000000000000000000000000600052603260045260246000fd5b7f416c726561647920436f6e6669726d6564000000000000000000000000000000600082015250565b6000611c2b60118361176b565b9150611c3682611bf5565b602082019050919050565b60006020820190508181036000830152611c5a81611c1e565b9050919050565b7f4e487b7100000000000000000000000000000000000000000000000000000000600052601160045260246000fd5b600060ff82169050919050565b6000611ca882611c90565b915060ff821415611cbc57611cbb611c61565b5b600182019050919050565b6000604082019050611cdc6000830185611751565b611ce960208301846117f9565b9392505050565b7f4e6f7420417574686f72697a6564000000000000000000000000000000000000600082015250565b6000611d26600e8361176b565b9150611d3182611cf0565b602082019050919050565b60006020820190508181036000830152611d5581611d19565b9050919050565b7f4e6f205253565020746f20636f6e6669726d0000000000000000000000000000600082015250565b6000611d9260128361176b565b9150611d9d82611d5c565b602082019050919050565b60006020820190508181036000830152611dc181611d85565b9050919050565b7f416c726561647920436c61696d65640000000000000000000000000000000000600082015250565b6000611dfe600f8361176b565b9150611e0982611dc8565b602082019050919050565b60006020820190508181036000830152611e2d81611df1565b9050919050565b7f416c72656164792050616964204f757400000000000000000000000000000000600082015250565b6000611e6a60108361176b565b9150611e7582611e34565b602082019050919050565b60006020820190508181036000830152611e9981611e5d565b9050919050565b600081905092915050565b50565b6000611ebb600083611ea0565b9150611ec682611eab565b600082019050919050565b6000611edc82611eae565b9150819050919050565b7f4e487b7100000000000000000000000000000000000000000000000000000000600052603160045260246000fd5b7f4661696c656420746f2073656e64204554480000000000000000000000000000600082015250565b6000611f4b60128361176b565b9150611f5682611f15565b602082019050919050565b60006020820190508181036000830152611f7a81611f3e565b9050919050565b7f4e487b7100000000000000000000000000000000000000000000000000000000600052602260045260246000fd5b60006002820490506001821680611fc857607f821691505b60208210811415611fdc57611fdb611f81565b5b50919050565b7f416c726561647920506169640000000000000000000000000000000000000000600082015250565b6000612018600c8361176b565b915061202382611fe2565b602082019050919050565b600060208201905081810360008301526120478161200b565b9050919050565b60006120598261152d565b91506120648361152d565b9250827fffffffffffffffffffffffffffffffffffffffffffffffffffffffffffffffff0382111561209957612098611c61565b5b828201905092915050565b7f546f6f204561726c790000000000000000000000000000000000000000000000600082015250565b60006120da60098361176b565b91506120e5826120a4565b602082019050919050565b60006020820190508181036000830152612109816120cd565b9050919050565b7f4d757374206265204576656e74204f776e657200000000000000000000000000600082015250565b600061214660138361176b565b915061215182612110565b602082019050919050565b6000602082019050818103600083015261217581612139565b9050919050565b60006121878261152d565b91506121928361152d565b9250828210156121a5576121a4611c61565b5b828203905092915050565b60006121bb8261152d565b91506121c68361152d565b9250817fffffffffffffffffffffffffffffffffffffffffffffffffffffffffffffffff04831182151516156121ff576121fe611c61565b5b828202905092915050565b600060208201905061221f6000830184611751565b9291505056fea2646970667358221220f5839d5e0fb404639b341d6022c7b0ed99b9569e1729a1455b795e17e65ee65c64736f6c63430008090033",
  "linkReferences": {},
  "deployedLinkReferences": {}
}